{
  "contractName": "Securex",
  "abi": [
    {
      "anonymous": false,
      "inputs": [
        {
          "indexed": false,
          "internalType": "string",
          "name": "caseId",
          "type": "string"
        },
        {
          "indexed": false,
          "internalType": "string",
          "name": "caseDescription",
          "type": "string"
        },
        {
          "indexed": false,
          "internalType": "uint256",
          "name": "totalVakalat",
          "type": "uint256"
        },
        {
          "indexed": false,
          "internalType": "string",
          "name": "startDateTime",
          "type": "string"
        },
        {
          "indexed": false,
          "internalType": "uint256",
          "name": "totalReplication",
          "type": "uint256"
        }
      ],
      "name": "CaseRegistered",
      "type": "event"
    },
    {
      "anonymous": false,
      "inputs": [
        {
          "indexed": false,
          "internalType": "string",
          "name": "description",
          "type": "string"
        },
        {
          "indexed": false,
          "internalType": "string",
          "name": "fileHash",
          "type": "string"
        },
        {
          "indexed": false,
          "internalType": "address",
          "name": "owner",
          "type": "address"
        },
        {
          "indexed": false,
          "internalType": "uint256",
          "name": "timestamp",
          "type": "uint256"
        },
        {
          "indexed": false,
          "internalType": "string",
          "name": "createdDateTime",
          "type": "string"
        }
      ],
      "name": "EvidenceRegistered",
      "type": "event"
    },
    {
      "anonymous": false,
      "inputs": [
        {
          "indexed": false,
          "internalType": "string",
          "name": "description",
          "type": "string"
        },
        {
          "indexed": false,
          "internalType": "string",
          "name": "fileHash",
          "type": "string"
        },
        {
          "indexed": false,
          "internalType": "address",
          "name": "owner",
          "type": "address"
        },
        {
          "indexed": false,
          "internalType": "uint256",
          "name": "timestamp",
          "type": "uint256"
        },
        {
          "indexed": false,
          "internalType": "string",
          "name": "createdDateTime",
          "type": "string"
        }
      ],
      "name": "ReplicationRegistered",
      "type": "event"
    },
    {
      "constant": true,
      "inputs": [
        {
          "internalType": "uint256",
          "name": "",
          "type": "uint256"
        }
      ],
      "name": "cases",
      "outputs": [
        {
          "internalType": "uint256",
          "name": "caseId",
          "type": "uint256"
        },
        {
          "internalType": "string",
          "name": "courtId",
          "type": "string"
        },
        {
          "internalType": "string",
          "name": "caseDescription",
          "type": "string"
        },
        {
          "internalType": "uint256",
          "name": "totalEvidences",
          "type": "uint256"
        },
        {
          "internalType": "string",
          "name": "startDateTime",
          "type": "string"
        },
        {
          "internalType": "bool",
          "name": "initialised",
          "type": "bool"
        },
        {
          "internalType": "string",
          "name": "nature",
          "type": "string"
        },
        {
          "internalType": "string",
          "name": "defendant",
          "type": "string"
        },
        {
          "internalType": "uint256",
          "name": "totalReplication",
          "type": "uint256"
        }
      ],
      "payable": false,
      "stateMutability": "view",
      "type": "function"
    },
    {
      "constant": true,
      "inputs": [],
      "name": "name",
      "outputs": [
        {
          "internalType": "string",
          "name": "",
          "type": "string"
        }
      ],
      "payable": false,
      "stateMutability": "view",
      "type": "function"
    },
    {
      "constant": true,
      "inputs": [],
      "name": "totalCases",
      "outputs": [
        {
          "internalType": "uint256",
          "name": "",
          "type": "uint256"
        }
      ],
      "payable": false,
      "stateMutability": "view",
      "type": "function"
    },
    {
      "constant": false,
      "inputs": [
        {
          "internalType": "string",
          "name": "_courtId",
          "type": "string"
        },
        {
          "internalType": "string",
          "name": "_caseDescription",
          "type": "string"
        },
        {
          "internalType": "string",
          "name": "_startDateTime",
          "type": "string"
        }
      ],
      "name": "registerCase",
      "outputs": [],
      "payable": false,
      "stateMutability": "nonpayable",
      "type": "function"
    },
    {
      "constant": false,
      "inputs": [
        {
          "internalType": "uint256",
          "name": "_caseId",
          "type": "uint256"
        },
        {
          "internalType": "string",
          "name": "_description",
          "type": "string"
        },
        {
          "internalType": "string",
          "name": "_fileHash",
          "type": "string"
        },
        {
          "internalType": "string",
          "name": "_createdDateTime",
          "type": "string"
        }
      ],
      "name": "registerEvidence",
      "outputs": [],
      "payable": false,
      "stateMutability": "nonpayable",
      "type": "function"
    },
    {
      "constant": true,
      "inputs": [
        {
          "internalType": "uint256",
          "name": "caseId",
          "type": "uint256"
        }
      ],
      "name": "getCaseById",
      "outputs": [
        {
          "internalType": "string",
          "name": "",
          "type": "string"
        },
        {
          "internalType": "string",
          "name": "",
          "type": "string"
        },
        {
          "internalType": "string",
          "name": "",
          "type": "string"
        },
        {
          "internalType": "uint256",
          "name": "",
          "type": "uint256"
        }
      ],
      "payable": false,
      "stateMutability": "view",
      "type": "function"
    },
    {
      "constant": true,
      "inputs": [
        {
          "internalType": "uint256",
          "name": "caseId",
          "type": "uint256"
        },
        {
          "internalType": "uint256",
          "name": "evidenceId",
          "type": "uint256"
        }
      ],
      "name": "getEvidenceById",
      "outputs": [
        {
          "internalType": "string",
          "name": "",
          "type": "string"
        },
        {
          "internalType": "string",
          "name": "",
          "type": "string"
        },
        {
          "internalType": "string",
          "name": "",
          "type": "string"
        },
        {
          "internalType": "address",
          "name": "",
          "type": "address"
        }
      ],
      "payable": false,
      "stateMutability": "view",
      "type": "function"
    }
  ],
  "bytecode": "0x6080604052600060025534801561001557600080fd5b50611bd7806100256000396000f3fe608060405234801561001057600080fd5b506004361061007d5760003560e01c8063759903f91161005b578063759903f91461030c578063caeb0085146104ff578063e2c3b374146106bb578063f09790dd146108415761007d565b806306fdde03146100825780630dc265c8146101055780634ce5162f146102ee575b600080fd5b61008a610ab8565b6040518080602001828103825283818151815260200191508051906020019080838360005b838110156100ca5780820151818401526020810190506100af565b50505050905090810190601f1680156100f75780820380516001836020036101000a031916815260200191505b509250505060405180910390f35b6102ec6004803603606081101561011b57600080fd5b810190808035906020019064010000000081111561013857600080fd5b82018360208201111561014a57600080fd5b8035906020019184600183028401116401000000008311171561016c57600080fd5b91908080601f016020809104026020016040519081016040528093929190818152602001838380828437600081840152601f19601f820116905080830192505050505050509192919290803590602001906401000000008111156101cf57600080fd5b8201836020820111156101e157600080fd5b8035906020019184600183028401116401000000008311171561020357600080fd5b91908080601f016020809104026020016040519081016040528093929190818152602001838380828437600081840152601f19601f8201169050808301925050505050505091929192908035906020019064010000000081111561026657600080fd5b82018360208201111561027857600080fd5b8035906020019184600183028401116401000000008311171561029a57600080fd5b91908080601f016020809104026020016040519081016040528093929190818152602001838380828437600081840152601f19601f820116905080830192505050505050509192919290505050610b56565b005b6102f6610dc0565b6040518082815260200191505060405180910390f35b6104fd6004803603608081101561032257600080fd5b81019080803590602001909291908035906020019064010000000081111561034957600080fd5b82018360208201111561035b57600080fd5b8035906020019184600183028401116401000000008311171561037d57600080fd5b91908080601f016020809104026020016040519081016040528093929190818152602001838380828437600081840152601f19601f820116905080830192505050505050509192919290803590602001906401000000008111156103e057600080fd5b8201836020820111156103f257600080fd5b8035906020019184600183028401116401000000008311171561041457600080fd5b91908080601f016020809104026020016040519081016040528093929190818152602001838380828437600081840152601f19601f8201169050808301925050505050505091929192908035906020019064010000000081111561047757600080fd5b82018360208201111561048957600080fd5b803590602001918460018302840111640100000000831117156104ab57600080fd5b91908080601f016020809104026020016040519081016040528093929190818152602001838380828437600081840152601f19601f820116905080830192505050505050509192919290505050610dc6565b005b6105356004803603604081101561051557600080fd5b8101908080359060200190929190803590602001909291905050506110ee565b604051808060200180602001806020018573ffffffffffffffffffffffffffffffffffffffff1673ffffffffffffffffffffffffffffffffffffffff168152602001848103845288818151815260200191508051906020019080838360005b838110156105af578082015181840152602081019050610594565b50505050905090810190601f1680156105dc5780820380516001836020036101000a031916815260200191505b50848103835287818151815260200191508051906020019080838360005b838110156106155780820151818401526020810190506105fa565b50505050905090810190601f1680156106425780820380516001836020036101000a031916815260200191505b50848103825286818151815260200191508051906020019080838360005b8381101561067b578082015181840152602081019050610660565b50505050905090810190601f1680156106a85780820380516001836020036101000a031916815260200191505b5097505050505050505060405180910390f35b6106e7600480360360208110156106d157600080fd5b810190808035906020019092919050505061143c565b60405180806020018060200180602001858152602001848103845288818151815260200191508051906020019080838360005b8381101561073557808201518184015260208101905061071a565b50505050905090810190601f1680156107625780820380516001836020036101000a031916815260200191505b50848103835287818151815260200191508051906020019080838360005b8381101561079b578082015181840152602081019050610780565b50505050905090810190601f1680156107c85780820380516001836020036101000a031916815260200191505b50848103825286818151815260200191508051906020019080838360005b838110156108015780820151818401526020810190506107e6565b50505050905090810190601f16801561082e5780820380516001836020036101000a031916815260200191505b5097505050505050505060405180910390f35b61086d6004803603602081101561085757600080fd5b81019080803590602001909291905050506116e5565b604051808a815260200180602001806020018981526020018060200188151515158152602001806020018060200187815260200186810386528e818151815260200191508051906020019080838360005b838110156108d95780820151818401526020810190506108be565b50505050905090810190601f1680156109065780820380516001836020036101000a031916815260200191505b5086810385528d818151815260200191508051906020019080838360005b8381101561093f578082015181840152602081019050610924565b50505050905090810190601f16801561096c5780820380516001836020036101000a031916815260200191505b5086810384528b818151815260200191508051906020019080838360005b838110156109a557808201518184015260208101905061098a565b50505050905090810190601f1680156109d25780820380516001836020036101000a031916815260200191505b50868103835289818151815260200191508051906020019080838360005b83811015610a0b5780820151818401526020810190506109f0565b50505050905090810190601f168015610a385780820380516001836020036101000a031916815260200191505b50868103825288818151815260200191508051906020019080838360005b83811015610a71578082015181840152602081019050610a56565b50505050905090810190601f168015610a9e5780820380516001836020036101000a031916815260200191505b509e50505050505050505050505050505060405180910390f35b60008054600181600116156101000203166002900480601f016020809104026020016040519081016040528092919081815260200182805460018160011615610100020316600290048015610b4e5780601f10610b2357610100808354040283529160200191610b4e565b820191906000526020600020905b815481529060010190602001808311610b3157829003601f168201915b505050505081565b6000835111610b6457600080fd5b6000825111610b7257600080fd5b6000815111610b8057600080fd5b6002600081548092919060010191905055506000600160006002548152602001908152602001600020905083816001019080519060200190610bc3929190611a38565b50600254816000018190555082816002019080519060200190610be7929190611a38565b5060008160040181905550600081600a018190555081816005019080519060200190610c14929190611a38565b5060018160060160006101000a81548160ff0219169083151502179055507fed558e4f68c8197faee885333920ec43251d69bc85ceefd0e99f250a068964808484600085600060405180806020018060200186815260200180602001858152602001848103845289818151815260200191508051906020019080838360005b83811015610cae578082015181840152602081019050610c93565b50505050905090810190601f168015610cdb5780820380516001836020036101000a031916815260200191505b50848103835288818151815260200191508051906020019080838360005b83811015610d14578082015181840152602081019050610cf9565b50505050905090810190601f168015610d415780820380516001836020036101000a031916815260200191505b50848103825286818151815260200191508051906020019080838360005b83811015610d7a578082015181840152602081019050610d5f565b50505050905090810190601f168015610da75780820380516001836020036101000a031916815260200191505b509850505050505050505060405180910390a150505050565b60025481565b60008411610dd357600080fd5b6000835111610de157600080fd5b6000825111610def57600080fd5b6000815111610dfd57600080fd5b6000600160008681526020019081526020016000209050610e1c611ab8565b6040518060a001604052808681526020018581526020013373ffffffffffffffffffffffffffffffffffffffff168152602001428152602001848152509050816004016000815480929190600101919050555080826003016000846004015481526020019081526020016000206000820151816000019080519060200190610ea5929190611afd565b506020820151816001019080519060200190610ec2929190611afd565b5060408201518160020160006101000a81548173ffffffffffffffffffffffffffffffffffffffff021916908373ffffffffffffffffffffffffffffffffffffffff160217905550606082015181600301556080820151816004019080519060200190610f30929190611afd565b509050507f79f62cc24f572353daff3584b20786cfe62a270f72538bd219a90a40168d879185853342876040518080602001806020018673ffffffffffffffffffffffffffffffffffffffff1673ffffffffffffffffffffffffffffffffffffffff16815260200185815260200180602001848103845289818151815260200191508051906020019080838360005b83811015610fda578082015181840152602081019050610fbf565b50505050905090810190601f1680156110075780820380516001836020036101000a031916815260200191505b50848103835288818151815260200191508051906020019080838360005b83811015611040578082015181840152602081019050611025565b50505050905090810190601f16801561106d5780820380516001836020036101000a031916815260200191505b50848103825285818151815260200191508051906020019080838360005b838110156110a657808201518184015260208101905061108b565b50505050905090810190601f1680156110d35780820380516001836020036101000a031916815260200191505b509850505050505050505060405180910390a1505050505050565b606080606060006001600087815260200190815260200160002060060160009054906101000a900460ff1661118b576040517f08c379a00000000000000000000000000000000000000000000000000000000081526004018080602001828103825260148152602001807f4e6f20737563682063617365206578697374732100000000000000000000000081525060200191505060405180910390fd5b611193611ab8565b6001600088815260200190815260200160002060030160008781526020019081526020016000206040518060a0016040529081600082018054600181600116156101000203166002900480601f01602080910402602001604051908101604052809291908181526020018280546001816001161561010002031660029004801561125e5780601f106112335761010080835404028352916020019161125e565b820191906000526020600020905b81548152906001019060200180831161124157829003601f168201915b50505050508152602001600182018054600181600116156101000203166002900480601f0160208091040260200160405190810160405280929190818152602001828054600181600116156101000203166002900480156113005780601f106112d557610100808354040283529160200191611300565b820191906000526020600020905b8154815290600101906020018083116112e357829003601f168201915b505050505081526020016002820160009054906101000a900473ffffffffffffffffffffffffffffffffffffffff1673ffffffffffffffffffffffffffffffffffffffff1673ffffffffffffffffffffffffffffffffffffffff16815260200160038201548152602001600482018054600181600116156101000203166002900480601f0160208091040260200160405190810160405280929190818152602001828054600181600116156101000203166002900480156114025780601f106113d757610100808354040283529160200191611402565b820191906000526020600020905b8154815290600101906020018083116113e557829003601f168201915b5050505050815250509050806000015181602001518260800151836040015183935082925081915094509450945094505092959194509250565b606080606060006001600086815260200190815260200160002060060160009054906101000a900460ff166114d9576040517f08c379a00000000000000000000000000000000000000000000000000000000081526004018080602001828103825260148152602001807f4e6f20737563682063617365206578697374732100000000000000000000000081525060200191505060405180910390fd5b60006001600087815260200190815260200160002090508060010181600201826005018360040154838054600181600116156101000203166002900480601f0160208091040260200160405190810160405280929190818152602001828054600181600116156101000203166002900480156115965780601f1061156b57610100808354040283529160200191611596565b820191906000526020600020905b81548152906001019060200180831161157957829003601f168201915b50505050509350828054600181600116156101000203166002900480601f0160208091040260200160405190810160405280929190818152602001828054600181600116156101000203166002900480156116325780601f1061160757610100808354040283529160200191611632565b820191906000526020600020905b81548152906001019060200180831161161557829003601f168201915b50505050509250818054600181600116156101000203166002900480601f0160208091040260200160405190810160405280929190818152602001828054600181600116156101000203166002900480156116ce5780601f106116a3576101008083540402835291602001916116ce565b820191906000526020600020905b8154815290600101906020018083116116b157829003601f168201915b505050505091509450945094509450509193509193565b6001602052806000526040600020600091509050806000015490806001018054600181600116156101000203166002900480601f0160208091040260200160405190810160405280929190818152602001828054600181600116156101000203166002900480156117975780601f1061176c57610100808354040283529160200191611797565b820191906000526020600020905b81548152906001019060200180831161177a57829003601f168201915b505050505090806002018054600181600116156101000203166002900480601f0160208091040260200160405190810160405280929190818152602001828054600181600116156101000203166002900480156118355780601f1061180a57610100808354040283529160200191611835565b820191906000526020600020905b81548152906001019060200180831161181857829003601f168201915b505050505090806004015490806005018054600181600116156101000203166002900480601f0160208091040260200160405190810160405280929190818152602001828054600181600116156101000203166002900480156118d95780601f106118ae576101008083540402835291602001916118d9565b820191906000526020600020905b8154815290600101906020018083116118bc57829003601f168201915b5050505050908060060160009054906101000a900460ff1690806007018054600181600116156101000203166002900480601f01602080910402602001604051908101604052809291908181526020018280546001816001161561010002031660029004801561198a5780601f1061195f5761010080835404028352916020019161198a565b820191906000526020600020905b81548152906001019060200180831161196d57829003601f168201915b505050505090806008018054600181600116156101000203166002900480601f016020809104026020016040519081016040528092919081815260200182805460018160011615610100020316600290048015611a285780601f106119fd57610100808354040283529160200191611a28565b820191906000526020600020905b815481529060010190602001808311611a0b57829003601f168201915b50505050509080600a0154905089565b828054600181600116156101000203166002900490600052602060002090601f016020900481019282601f10611a7957805160ff1916838001178555611aa7565b82800160010185558215611aa7579182015b82811115611aa6578251825591602001919060010190611a8b565b5b509050611ab49190611b7d565b5090565b6040518060a001604052806060815260200160608152602001600073ffffffffffffffffffffffffffffffffffffffff16815260200160008152602001606081525090565b828054600181600116156101000203166002900490600052602060002090601f016020900481019282601f10611b3e57805160ff1916838001178555611b6c565b82800160010185558215611b6c579182015b82811115611b6b578251825591602001919060010190611b50565b5b509050611b799190611b7d565b5090565b611b9f91905b80821115611b9b576000816000905550600101611b83565b5090565b9056fea265627a7a7231582011cc0f7d4f1027dae29bc05597bd995e5cf073ec082e540c644edebe7ed781c964736f6c63430005100032",
  "source": "// SPDX-License-Identifier: MIT\r\npragma solidity >=0.4.22 <0.9.0;\r\n\r\ncontract Securex {\r\n    string public name;\r\n\r\n    mapping(uint256 => Case) public cases;\r\n\r\n    uint256 public totalCases = 0;\r\n\r\n    struct Evidence {\r\n        string description;\r\n        string fileHash;\r\n        address owner;\r\n        uint256 timestamp;\r\n        string createdDateTime;\r\n    }\r\n\r\n    struct Replication {\r\n        string description;\r\n        string fileHash;\r\n        address owner;\r\n        uint256 timestamp;\r\n        string createdDateTime;\r\n    }\r\n\r\n    struct Case {\r\n        uint256 caseId;\r\n        string courtId;\r\n        string caseDescription;\r\n        mapping(uint256 => Evidence) evidences;\r\n        uint256 totalEvidences;\r\n        string startDateTime;\r\n        bool initialised;\r\n        string nature;\r\n        string defendant;\r\n        mapping(uint256 => Replication) replication;\r\n        uint256 totalReplication;\r\n    }\r\n\r\n\r\n    event ReplicationRegistered(\r\n        string description,\r\n        string fileHash,\r\n        address owner,\r\n        uint256 timestamp,\r\n        string createdDateTime\r\n    );\r\n\r\n    event EvidenceRegistered(\r\n        string description,\r\n        string fileHash,\r\n        address owner,\r\n        uint256 timestamp,\r\n        string createdDateTime\r\n    );\r\n\r\n    event CaseRegistered(\r\n        string caseId,\r\n        string caseDescription,\r\n        uint256 totalVakalat,\r\n        string startDateTime,\r\n        uint256 totalReplication\r\n    );\r\n    \r\n\r\n    function registerCase(\r\n        string memory _courtId,\r\n        string memory _caseDescription,\r\n        string memory _startDateTime\r\n    ) public {\r\n        require(bytes(_courtId).length > 0);\r\n        require(bytes(_caseDescription).length > 0);\r\n        require(bytes(_startDateTime).length > 0);\r\n\r\n        totalCases++;\r\n        Case storage newCase = cases[totalCases];\r\n\r\n        newCase.courtId = _courtId;\r\n\r\n        newCase.caseId = totalCases;\r\n        newCase.caseDescription = _caseDescription;\r\n        newCase.totalEvidences = 0;\r\n        newCase.totalReplication=0;\r\n        newCase.startDateTime = _startDateTime;\r\n        newCase.initialised = true;\r\n\r\n        emit CaseRegistered(_courtId, _caseDescription, 0, _startDateTime,0);\r\n    }\r\n\r\n    function registerEvidence(\r\n        uint256 _caseId,\r\n        string memory _description,\r\n        string memory _fileHash,\r\n        string memory _createdDateTime\r\n    ) public {\r\n        require(_caseId > 0);\r\n        require(bytes(_description).length > 0);\r\n        require(bytes(_fileHash).length > 0);\r\n        require(bytes(_createdDateTime).length > 0);\r\n\r\n        Case storage contextCase = cases[_caseId];\r\n        Evidence memory newEvidence = Evidence({\r\n            description: _description,\r\n            fileHash: _fileHash,\r\n            owner: msg.sender,\r\n            createdDateTime: _createdDateTime,\r\n            timestamp: block.timestamp\r\n        });\r\n\r\n        contextCase.totalEvidences++;\r\n        contextCase.evidences[contextCase.totalEvidences] = newEvidence;\r\n        emit EvidenceRegistered(\r\n            _description,\r\n            _fileHash,\r\n            msg.sender,\r\n            block.timestamp,\r\n            _createdDateTime\r\n        );\r\n    }\r\n\r\n    function getCaseById(uint256 caseId)\r\n        external\r\n        view\r\n        returns (\r\n            string memory,\r\n            string memory,\r\n            string memory,\r\n            uint256\r\n        )\r\n    {\r\n        require(cases[caseId].initialised, \"No such case exists!\");\r\n        Case storage reqcase = cases[caseId];\r\n        return (\r\n            reqcase.courtId,\r\n            reqcase.caseDescription,\r\n            reqcase.startDateTime,\r\n            reqcase.totalEvidences\r\n        );\r\n    }\r\n\r\n    function getEvidenceById(uint256 caseId, uint256 evidenceId)\r\n        external\r\n        view\r\n        returns (\r\n            string memory,\r\n            string memory,\r\n            string memory,\r\n            address\r\n        )\r\n    {\r\n        require(cases[caseId].initialised, \"No such case exists!\");\r\n        Evidence memory evd = cases[caseId].evidences[evidenceId];\r\n        return (evd.description, evd.fileHash, evd.createdDateTime, evd.owner);\r\n    }\r\n\r\n    \r\n}\r\n",
  "sourcePath": "D:\\Code\\BCMS\\src\\contracts\\Securex.sol",
  "compiler": {
    "name": "solc",
    "version": "0.5.16+commit.9c3226ce.Emscripten.clang"
  },
  "schemaVersion": "3.4.7",
  "updatedAt": "2022-06-02T13:42:52.491Z",
  "networkType": "ethereum",
  "devdoc": {
    "methods": {}
  },
  "userdoc": {
    "methods": {}
  }
}